:100000000C94BB000C94E3000C94E3000C94E3000C
:100010000C94E3000C94E3000C94E3000C94E300D4
:100020000C94E3000C94E3000C94E3000C94E300C4
:100030000C94E3000C94E3000C94E3000C94E300B4
:100040000C94AE160C94E3000C947C160C9456168B
:100050000C94E3000C94E3000C94E3000C94E30094
:100060000C94F8160C94E30007634236B79BD8A7AC
:100070001A39685618AEBAAB558C1D3CB7CC5763CD
:10008000BD6DEDFD753EF6177231BF000000803F7B
:1000900008000000BE922449123EABAAAA2ABECD97
:1000A000CCCC4C3E00000080BEABAAAAAA3E000009
:1000B0000000BF000000803F000000000008417801
:1000C000D3BB4387D1133D190E3CC3BD4282AD2B38
:1000D0003E68EC8276BED98FE1A93E4C80EFFFBE30
:1000E00001C4FF7F3F00000000007C3C3E5E2B3DD2
:1000F0003F2F5B5D3B2C2A225C00000000002500A6
:1001000028002B000000000023002600290000002A
:1001100000080002010000030407000000000000C6
:10012000000030383A33323A3433004465632020DB
:100130003820323031390000000000240027002A26
:100140000001020408102040800102040810200170
:10015000020408102004040404040404040202023B
:100160000202020303030303031F1C1F1E1F1E1FA3
:100170001F1E1F1E241811241FBECFEFD8E0DEBFA4
:10018000CDBF28E0A0EBB4E001C01D92A93DB207AD
:10019000E1F714E0A0E0B1E0EEE4F0E502C0059084
:1001A0000D92A03BB107D9F710E0CBEBD0E004C033
:1001B0002197FE010E940626CA3BD107C9F70E947B
:1001C00087180C9425280C94000020917A0781E070
:1001D000213208F044C0809156078111FCCF8091F4
:1001E000790792E09093560791E0909355079FEF1F
:1001F000909354071092530720935207A9E5B7E054
:10020000E2E3F7E090E0291331C0109231079091BA
:100210003107880F892B8093310780913007813017
:1002200049F510923007809131078093BB0080918F
:10023000BC0083FDF8CF85EC8093BC00809156070D
:100240008230E1F3809154078F3FB1F080915407E1
:100250008032A1F080915407803391F084E01092B5
:10026000580710927A071092570708953D913193DD
:100270009F5FC9CF85EEE0CF80E0F1CF82E0EFCF86
:1002800083E0EDCF909156079111FCCF91E09093D0
:100290005607909355072FEF20935407109253075A
:1002A000260F209352079093310790913107880FC2
:1002B000892B80933107809130078130F9F41092B7
:1002C0003007809131078093BB008091BC0083FD93
:1002D000F8CF85EC8093BC00809156078130E1F324
:1002E00080915307861710F460915307A2E3B7E09B
:1002F000E0E1F7E080E0861303C0089585EEEACFE1
:100300009D9191938F5FF7CFEBE7F7E0A089B189DB
:1003100082E08C93A485B5851C92A685B7858FEC69
:100320008C93108EA489B58986E08C93A289B389B9
:100330008C9180618C93A289B3898C9188608C9315
:10034000A289B3898C9180688C930288F389E02D0F
:1003500080818F7D8083089580910E0790910F0793
:10036000891B990B089508950895CF93DF93FC019D
:100370008281938190937208809371088481958122
:10038000A681B7818093730890937408A093750831
:10039000B093760880859185A285B3858093770890
:1003A00090937808A0937908B0937A08DF011C969F
:1003B000CF014996CBE7D8E02D912993A817B9072B
:1003C000D9F7818D928D90938908809388088FE664
:1003D00098E0DF91CF910895AF92BF92CF92DF92D4
:1003E000EF92FF920F931F93CF93DF936C017B01EA
:1003F0008B01040F151FEB015E01AE18BF08C0177B
:10040000D10759F06991D601ED91FC910190F081ED
:10041000E02DC6010995892B79F7C501DF91CF91B0
:100420001F910F91FF90EF90DF90CF90BF90AF9012
:100430000895FC01538D448D252F30E0842F90E0EA
:10044000821B930B541710F0CF96089501970895CF
:10045000FC01918D828D981761F0A28DAE0FBF2F98
:10046000B11D5D968C91928D9F5F9F73928F90E0EE
:1004700008958FEF9FEF0895FC01918D828D98175D
:1004800031F0828DE80FF11D858D90E008958FEF9A
:100490009FEF0895FC01918D228D892F90E0805C63
:1004A0009F4F821B91098F73992708958BE797E0DF
:1004B0000E944A0221E0892B09F420E0822F08954E
:1004C00080E090E0892B29F00E94560281110C9463
:1004D00000000895FC01A48DA80FB92FB11DA35AE7
:1004E000BF4F2C91848D90E001968F739927848F54
:1004F000A689B7892C93A089B1898C918370806477
:100500008C93938D848D981306C00288F389E02D17
:1005100080818F7D80830895EF92FF920F931F93C8
:10052000CF93DF93EC0181E0888F9B8D8C8D9813A6
:100530001AC0E889F989808185FF15C09FB7F894B2
:10054000EE89FF896083E889F989808183708064FE
:1005500080839FBF81E090E0DF91CF911F910F9149
:10056000FF90EF900895F62E0B8D10E00F5F1F4F58
:100570000F731127E02E8C8D8E110CC00FB607FC67
:10058000FACFE889F989808185FFF5CFCE010E94F5
:100590006A02F1CFEB8DEC0FFD2FF11DE35AFF4FF7
:1005A000F0829FB7F8940B8FEA89FB898081806283
:1005B000CFCF682F8BE797E00C948C02CF93DF931B
:1005C000EC01888D8823B9F0AA89BB89E889F9896B
:1005D0008C9185FD03C0808186FD0DC00FB607FCA0
:1005E000F7CF8C9185FFF2CF808185FFEDCFCE01D3
:1005F0000E946A02E9CFDF91CF910895833081F0A4
:1006000028F4813099F08230A9F008958730A9F05C
:100610008830C9F08430B1F4809180008F7D03C0B0
:10062000809180008F7780938000089584B58F77C4
:1006300084BD089584B58F7DFBCF8091B0008F7706
:100640008093B00008958091B0008F7DF9CFCF9353
:10065000DF93282F30E0F901E25FFE4F8491F9012A
:10066000EF5BFE4FD491F901EB5AFE4FC491CC23BE
:10067000A1F081110E94FE02EC2FF0E0EE0FFF1FAF
:10068000EC5FFE4FA591B491EC91ED2381E090E0F9
:1006900009F480E0DF91CF91089580E090E0FACFF7
:1006A0001F93CF93DF93282F30E0F901E25FFE4FD5
:1006B0008491F901EF5BFE4FD491F901EB5AFE4FA3
:1006C000C491CC23A9F0162F81110E94FE02EC2FB9
:1006D000F0E0EE0FFF1FE650FF4FA591B4918FB7EA
:1006E000F894EC91111108C0D095DE23DC938FBFF4
:1006F000DF91CF911F910895DE2BF8CF10920F0755
:1007000010920E071092580710927A07109256070F
:1007100081E0809355071092300761E082E10E94EA
:10072000500361E083E10E945003E9EBF0E0808137
:100730008E7F808380818D7F808388E48093B80062
:1007400085E48093BC0083EB91E090930D07809348
:100750000C0784EB91E090930B0780930A070895B0
:10076000CF93DF9390E0FC01EF5BFE4F24918B5A17
:100770009E4FFC0184918823D1F090E0880F991F4F
:10078000FC01E95CFE4FA591B491FC01E650FF4FDE
:10079000C591D49161110EC09FB7F8948C91E22F4E
:1007A000E0958E238C932881E223E8839FBFDF911D
:1007B000CF9108958FB7F894EC91E22BEC938FBF13
:1007C000F6CF806480937C0080917A00806480936F
:1007D0007A0080917A0086FDFCCF8091780090911C
:1007E000790008953FB7F8948091FF049091000537
:1007F000A0910105B091020526B5A89B05C02F3F29
:1008000019F00196A11DB11D3FBFBA2FA92F982F36
:100810008827BC01CD01620F711D811D911D42E031
:10082000660F771F881F991F4A95D1F708958F92F9
:100830009F92AF92BF92CF92DF92EF92FF924B01C5
:100840005C010E94F2036B017C010E94F2036C19AF
:100850007D098E099F09683E734081059105A8F3C3
:1008600021E0821A9108A108B10888EEC80E83E041
:10087000D81EE11CF11C81149104A104B10429F7D4
:10088000FF90EF90DF90CF90BF90AF909F908F90B0
:1008900008952FB7F8946091FB047091FC04809147
:1008A000FD049091FE042FBF08958FB7F8948091B6
:1008B000F4048FBF089561E0FC0184810E9450031D
:1008C0008091F30481111092F30408958EBD00000D
:1008D0000DB407FEFDCF8EB508958FEF0C9466041E
:1008E0000F931F93CF93DF93EC010E9449048B0178
:1008F0000E946D048F3F69F00E944904601B710BD8
:100900006C177D07A8F380E0DF91CF911F910F91C5
:10091000089581E0F9CF8CBD9DBD0895CF93DF93FD
:10092000EC018091F304811109C081E08093F3040C
:1009300080911808909119080E948B0460E08C81C6
:10094000DF91CF910C9450038F929F92AF92BF9200
:10095000FF920F931F93CF93DF93EC01F62E490183
:100960005A018E81882389F08F8198859C012F5FA1
:100970003F4F38872F838230924018F40E946D04D5
:10098000F3CFCE010E945B041E82CE010E948E0432
:100990008CE291E00E9470048F2D80640E946604B6
:1009A00008E110E0D501C401002E04C0B695A7955A
:1009B000979587950A94D2F70E946604085011090A
:1009C000083F8FEF180771F785E9FF2021F028E035
:1009D00087E8F2128FEF0E94660410E00E946D0417
:1009E0008A8787FF04C01F3F11F01F5FF7CFDF9199
:1009F000CF911F910F91FF90BF90AF909F908F90DC
:100A00000895AF92BF92CF92DF92EF92FF920F9331
:100A10001F93CF93DF93EC016901C801820F931FED
:100A20008130924050F58E81882379F088819981B8
:100A3000AA81BB8184179507A607B70731F48F8178
:100A40009885C816D90608F042C0488359836A833E
:100A50007B838B85833039F089E0440F551F661FF7
:100A6000771F8A95D1F79A01AB0161E1CE010E940F
:100A7000A404882389F083E08D83CE010E945B0467
:100A800080E0DF91CF911F910F91FF90EF90DF9069
:100A9000CF90BF90AF9008950E9449045B010E94DF
:100AA0006D048A878F3F69F40E9449046A197B09A3
:100AB0006D327140A0F38FE08D83CE010E945B0404
:100AC000DCCF8E3F89F418861F8281E08E838F8170
:100AD00098858C159D0550F40E946D048F81988532
:100AE000019698878F83F3CF8DE0E6CF6701E00E04
:100AF000F11E0E946D04F60181936F01EE15FF0552
:100B0000C1F78F819885080F191F18870F83898572
:100B1000882319F001151240A0F08E81882389F0F6
:100B20008F8198859C012F5F3F4F38872F838230BC
:100B3000924018F40E946D04F3CFCE010E945B0432
:100B40001E8281E09ECFEF92FF920F931F93CF936F
:100B5000DF93EC01790182E14115510561057105D1
:100B600099F08B85833039F089E0440F551F661F5B
:100B7000771F8A95D1F79A01AB0168E1CE010E94F7
:100B8000A404882319F084E08D8330C08EEF0E9486
:100B9000660487018EEFF81AF80181918F010E9497
:100BA00066040E151F05C1F78FEF0E9466048FEFD4
:100BB0000E9466040E946D048A878F71853089F4D3
:100BC00088E592E00E9470048823A9F020E030E0DC
:100BD000A9016DE0CE010E94A404882371F084E194
:100BE000D3CF81E18D83CE010E945B04CE010E94B0
:100BF0005B0480E00AC085E1C7CF0E946D048111CB
:100C0000EECFCE010E945B0481E0DF91CF911F9176
:100C10000F91FF90EF900895CF93DF938091F504AB
:100C20008823A9F1C0910807D091090740910001DC
:100C300050910101609102017091030128E035E0BB
:100C4000CE010E94A305811104C080E0DF91CF9105
:100C500008954091F6045091F7046091F804709162
:100C6000F904411551056105710579F028E035E079
:100C7000CE010E94A305882341F31092F60410923E
:100C8000F7041092F8041092F9041092F50481E030
:100C9000DDCF8F929F92AF92BF92EF92FF920F9310
:100CA0001F93CF934B015C01C42F80910001909161
:100CB0000101A0910201B091030188159905AA05CF
:100CC000BB0549F10E940C0681110BC080E0CF9159
:100CD0001F910F91FF90EF90BF90AF909F908F90DA
:100CE000089588E0E82E85E0F82E00E012E030E07C
:100CF00020E0B501A40180910807909109070E94A6
:100D00000105882319F38092000190920101A092BD
:100D10000201B09203014091F5044C2B4093F5047D
:100D200081E0D5CF8F929F92AF92BF92CF92DF9208
:100D3000EF92FF92CF932AE138E030930907209396
:100D40000807882309F46DC040E060E070E0CB0143
:100D50000E94490681110BC080E0CF91FF90EF9077
:100D6000DF90CF90BF90AF909F908F90089580912B
:100D7000C6068F7789F78091D2069091D306A0910D
:100D8000D406B091D50684369105A105B10520F3AE
:100D9000C090CE06D090CF06E090D006F090D1065D
:100DA000C114D104E104F104B9F240E0C701B60175
:100DB0000E944906882381F28091130590911405C1
:100DC0008115924049F6A0911805AA2329F2609155
:100DD0001605709117056115710509F4BDCF2091B5
:100DE0001505222309F4B8CFA093380820932A08C8
:100DF00090E080E030E0E1E0F0E0C82FAF01082EA5
:100E000002C0440F551F0A94E2F72417350769F012
:100E100041E0480F01968930910579F740933308F6
:100E20009BCFC12CD12C7601C0CF80933308209169
:100E30001E0530911F0550E040E02115310541F4B9
:100E400020912C0530912D0540912E0550912F05B4
:100E500020932B0830932C0840932D0850932E0894
:100E600046015701860E971EA11CB11C80923908BD
:100E700090923A08A0923B08B0923C08E091190584
:100E8000F0911A05F0933F08E0933E08B0E00E940D
:100E9000D622DC01CB01880D991DAA1DBB1D8093B4
:100EA000400890934108A0934208B093430825E07E
:100EB000EE0FFF1F2A95E1F7E150FE4FEF2FFF27BE
:100EC000E6958E0F9F1FA11DB11D8093340890934E
:100ED0003508A0933608B093370880901B05909092
:100EE0001C05B12CA12C8114910441F4809028059B
:100EF00090902905A0902A05B0902B05C81AD90A10
:100F0000EA0AFB0AC80CD91CEA1CFB1C04C0F694B4
:100F1000E794D794C794CA95D2F7C0922F08D0927D
:100F20003008E0923108F092320885EFC8168FE061
:100F3000D806E104F10428F48CE080933D0881E0B8
:100F40000CCF80E125EFC2162FEFD206E104F104A9
:100F5000A0F38091340590913505A0913605B091AC
:100F600037058093400890934108A0934208B093BE
:100F7000430880E2E2CF4F925F926F927F928F920E
:100F80009F92AF92BF92CF92DF92EF92FF920F9318
:100F90001F93CF93DF93EC0142305105610571053A
:100FA00090F480E0DF91CF911F910F91FF90EF902F
:100FB000DF90CF90BF90AF909F908F907F906F9079
:100FC0005F904F90089589859A85AB85BC85019681
:100FD000A11DB11D84179507A607B70710F3CB888D
:100FE000DC88ED88FE888F89803109F042C0BB27FC
:100FF000A72F962F852F480159012A013B01C80EC2
:10100000D91EEA1EFB1E8091000190910101A09162
:101010000201B0910301C816D906EA06FB0699F54C
:101020008F898031C1F5B301A20155276627772743
:10103000440F551F485F5A4FFA0191828082809178
:10104000F50481608093F5048A89823080F08D8177
:101050009E81AF81B8858C0D9D1DAE1DBF1D8093F7
:10106000F6049093F704A093F804B093F90481E098
:1010700099CFDB01CA01E7E0B695A79597958795CB
:10108000EA95D1F7B8CF40E0C701B6010E94490602
:101090008111C6CF86CFB301A2014F7755276627AE
:1010A0007727440F551F440F551F485F5A4FFA01C9
:1010B00080829182A282B382C2CF8F929F92AF929E
:1010C000BF92CF92DF92EF92FF920F931F93CF9335
:1010D000DF93FC0181859285A385B4850196A11DCE
:1010E000B11D84179507A607B70770F480E0DF915C
:1010F000CF911F910F91FF90EF90DF90CF90BF9015
:10110000AF909F908F90089583889488A588B68823
:101110008789803189F5BB27A72F962F852FE90175
:101120006A017B018F01BC01CD01680D791D8A1D0B
:101130009B1D8090000190900101A0900201B09051
:10114000030186169706A806B90601F5F8018789F6
:10115000803111F5DD24EE24FF24F601EE0FFF1F90
:10116000E85FFA4F80819181B0E0A0E088839983A5
:10117000AA83BB8381E0BBCFDB01CA01C7E0B69580
:10118000A79597958795CA95D1F7C9CF40E00E945A
:1011900049068111DBCFAACFE894C7F8DD24EE24FD
:1011A000FF24F601EE0FFF1FEE0FFF1FE85FFA4F5F
:1011B00080819181A281B381BF70D8CF4F925F921D
:1011C0006F927F92AF92BF92CF92DF92EF92FF9297
:1011D0000F931F93CF93DF9300D000D0CDB7DEB72E
:1011E0008C0149835A836B837C835901C12CD12C98
:1011F0007601412C82E0582E612C712C49815A8154
:101200006B817C819E012F5F3F4FC8010E945D086A
:10121000882339F1F8018585A301920104C0220FCA
:10122000331F441F551F8A95D2F7DA01C901C80E32
:10123000D91EEA1EFB1E49815A816B817C818789F8
:10124000803111F188EF9FEFAFEFBFE048175907EA
:101250006A077B0798F2F501C082D182E282F382AD
:1012600081E00F900F900F900F90DF91CF911F9121
:101270000F91FF90EF90DF90CF90BF90AF907F9055
:101280006F905F904F90089588EF9FEFA0E0B0E0DF
:10129000DDCFCF93DF93FC012581222321F080E075
:1012A000DF91CF910895EC0180913D08803159F58F
:1012B00082E08583178A108E118E128E80913E08EF
:1012C00090913F08B0E0A0E025E0880F991FAA1F89
:1012D000BB1F2A95D1F7838B948BA58BB68B86E2A7
:1012E00098E09C8F8B8F81E08C831E821F821886F2
:1012F00019861A861B861C861D861E861F86188ADE
:10130000198A1A8ACDCF803251F683E085834091C5
:101310004008509141086091420870914308478B02
:10132000508F618F728F9F012D5E3F4F86E298E054
:101330000E94DE088111D3CFB2CF8F929F92AF92DD
:10134000BF92CF92DF92EF92FF920F931F93CF93B2
:10135000DF93EC018D8181110EC080E0DF91CF9190
:101360001F910F91FF90EF90DF90CF90BF90AF90C3
:101370009F908F9008950B891C892D893E890417B1
:1013800015072607370748F34A015B01823031F41D
:101390008A869B86AC86BD8681E0E0CF811491046D
:1013A000A104B10449F41E821F82188619861A8688
:1013B0001B861C861D86F0CF0A851B852C853D85E6
:1013C000EB8DFC8D858590E00996B901A80141500F
:1013D000510961097109082E04C0769567955795E2
:1013E00047950A94D2F775016401E1E0CE1AD1085D
:1013F000E108F10804C0F694E794D794C7948A955D
:10140000D2F7C416D506E606F70620F0012B022B0C
:10141000032B11F58F89988DA98DBA8D8E839F83AB
:10142000A887B9878E010A5F1F4FC114D104E10458
:10143000F10409F4ADCF4E815F816885798598010B
:101440008B8D9C8D0E945D0891E0C91AD108E1083E
:10145000F1088111EACF81CFC41AD50AE60AF70A4A
:10146000E1CF3F924F925F926F927F928F929F92C5
:10147000AF92BF92CF92DF92EF92FF920F931F93A2
:10148000CF93DF93CDB7DEB72C970FB6F894DEBFBE
:101490000FBECDBF5C01DC015B968D909C905C978C
:1014A00016964D905D906D907C9019974114510463
:1014B0006104710409F468C0BFEF4B1A5B0A6B0A40
:1014C0007B0A312CF40181859285A385B4859C012A
:1014D000AD012F5F3F4F4F4F5F4F29873A874B87B3
:1014E0005C87730162011D821E821F821886F401CF
:1014F00081859285A385B4852D813E814F81588554
:10150000281739074A075B0708F056C089859A856E
:10151000AB85BC858C159D05AE05BF0550F482E0FA
:10152000C82ED12CE12CF12C92E0492E512C612CAB
:10153000712C9E012F5F3F4FB701A601C4010E948D
:101540005D088823C9F189819A81AB81BC81892B8F
:101550008A2B8B2B09F1260137019FEF491A590A73
:10156000690A790A2D813E814F8158852F5F3F4F4F
:101570004F4F5F4F2D833E834F8358873FEFC31AF2
:10158000D30AE30AF30AB3CFF401408051806280AA
:1015900073803324339496CFC414D504E604F7043F
:1015A00009F70FEF1FEF2FEF3FE0B701A601C401CE
:1015B0000E94BB07811119C080E02C960FB6F894E9
:1015C000DEBF0FBECDBFDF91CF911F910F91FF9076
:1015D000EF90DF90CF90BF90AF909F908F907F90D3
:1015E0006F905F904F903F900895F501468157812D
:1015F00060857185411551056105710539F09701C7
:101600008601C4010E94BB078823B1F2D50116965A
:10161000CD92DD92ED92FC921997332051F0D701D3
:10162000C6010196A11DB11DF40180839183A2839F
:10163000B383F5018789908DA18DB28D892B8A2B7B
:101640008B2B39F4C78AD08EE18EF28E848180682C
:10165000848381E0B2CFCF93DF93EC018D81882327
:1016600089F18C8187FF2AC06E857F858889998959
:1016700041E00E944906882329F1EA8980E2E89F37
:10168000F0011124E85FFA4F3097E1F08D8182304C
:1016900040F48B899C89AD89BE89848F958FA68FF4
:1016A000B78F8F89988D938F828F8F89988DA98D11
:1016B000BA8DB58BA48B8C818F778C83DF91CF9182
:1016C0000C940C0680E0DF91CF910895CF93DF93C7
:1016D000EC010E942B0B882311F01D8281E0DF9129
:1016E000CF9108952F923F924F925F926F927F9287
:1016F0008F929F92AF92BF92CF92DF92EF92FF9222
:101700000F931F93CF93DF9300D000D0CDB7DEB7F8
:101710008C015B011A01DC0115968C9115978130C3
:1017200009F0C8C014968C9181FFC4C082FDAEC080
:101730006101D8011A964D915D916D917C911D9733
:10174000C114D10409F429C15B968D919C915C97D9
:10175000FC0174802FEF270D2A013B0139E07694BC
:101760006794579447943A95D1F7722E74207A0172
:10177000F1E0FF22711020C0E114F104E9F41696A3
:101780004D915D916D917C911997411551056105C0
:10179000710509F098C057968D919D910D90BC915F
:1017A000A02D0097A105B10509F0AFC0C8010E94A6
:1017B000310A882309F47EC080E092E08E199F09E7
:1017C00046018C159D0508F44C01D8015B964D919E
:1017D0005C915C9716968D919D910D90BC91A02D7A
:1017E0000297A109B109FA01258504C0880F991F44
:1017F000AA1FBB1F2A95D2F7468557856089718934
:10180000840F951FA61FB71F9C01AD01270D311D29
:10181000411D511D29013A01811432E0930609F05E
:101820007AC08091000190910101A0910201B091D4
:10183000030184159505A605B70559F48FEF9FEFB1
:10184000DC018093000190930101A0930201B09309
:1018500003019501B301A201809108079091090746
:101860000E94A305882331F19EEFB91AC818D90840
:10187000F80182859385A485B585880D991DA11DE4
:10188000B11D82879387A487B58753CFF801438919
:1018900054896589768982859385A485B58548179D
:1018A00059076A077B0709F443CFC8010E949D09C5
:1018B00081113ECF81E090E0D80113969C938E93E6
:1018C000129780E007C09E012F5F3F4F0E945D0886
:1018D000811102C090E077C089819A81AB81BC817F
:1018E000F801238D348DF901278948EF5FEF60E01F
:1018F00070E0203121F048EF5FEF6FEF7FE0841759
:101900009507A607B70708F051CFF801868397839C
:10191000A087B18751CFE114F10491F5D8011A964F
:101920004D915D916D917C911D9753968D919D91F7
:101930000D90BC91A02D481759076A077B0700F14D
:101940000E940C06882309F4B5CF40920001509202
:10195000010160920201709203018091F50481609F
:101960008093F5049701285F3A4FD501C901880D8E
:10197000991DF9018E179F0759F04D914193FACFA8
:1019800041E0C301B2010E9449068111EBCF92CF21
:10199000821B930BA80EB91E69CFF8018389948925
:1019A000A589B68984179507A607B70738F48481F7
:1019B000438B548B658B768B80688483F80184819C
:1019C00083FD18C0C1010F900F900F900F90DF9111
:1019D000CF911F910F91FF90EF90DF90CF90BF902C
:1019E000AF909F908F907F906F905F904F903F90BF
:1019F0002F900895C8010E942B0B882309F45ACF19
:101A0000E1CFCF93DF931F92CDB7DEB7698341E07B
:101A100050E0BE016F5F7F4F0E94720B0F90DF910D
:101A2000CF910895FC01DB0112968D919C91139743
:101A30009383828384E791E09183808314968C91D1
:101A40001497848315968C911597858316964D91DE
:101A50005D916D917C91199746835783608771875B
:101A60001A964D915D916D917C911D974287538798
:101A7000648775871E964D915D916D917C9151970C
:101A800046875787608B718B52968C915297828BC9
:101A900053964D915D916D917C915697438B548BEC
:101AA000658B768B57964D915D916D917C915A9790
:101AB000478B508F618F728F5B968D919C91948F25
:101AC000838F08950895FC01818D928D009711F008
:101AD0000C942B0B0895DC015996ED91FC913097F5
:101AE000B9F083899489A589B6894285538564852F
:101AF0007585841B950BA60BB70B811520E8920703
:101B0000A105B10538F08FEF9FE7A0E0B0E00895A0
:101B100090E080E00895CF93DF93EC01E98DFA8D9A
:101B2000309749F481E090E09B838A8390E080E0E5
:101B3000DF91CF91089513821282898D9A8D0E9430
:101B4000720BE98DFA8D22813381232B59F7F0CF67
:101B5000CF93DF931F92CDB7DEB76983DC01ED91A0
:101B6000FC910280F381E02D41E050E0BE016F5F07
:101B70007F4F09950F90DF91CF9108952F923F925B
:101B80004F925F926F927F928F929F92AF92BF928D
:101B9000CF92DF92EF92FF920F931F93CF93DF9339
:101BA00000D01F92CDB7DEB7FC018581811118C02E
:101BB0008FEF9FEF0F900F900F90DF91CF911F91BC
:101BC0000F91FF90EF90DF90CF90BF90AF909F90DC
:101BD0008F907F906F905F904F903F902F900895DF
:101BE000848180FFE5CF4389548965897689828520
:101BF0009385A485B585312C212C481759076A0790
:101C00007B0719F022242394312C6F012101CE018E
:101C100001963C01DF011696BB83AA83411451044F
:101C200009F4C5C0F60142855385648575854A016E
:101C3000F1E09F22D6015B968D919C915C978A0181
:101C40009B01E9E03695279517950795EA95D1F719
:101C50001596EC91E230E9F5FC01628D738D848D6F
:101C6000958D600F711F821F931FA12C22E0B22E51
:101C7000A818B9084A145B0408F45201F60124813B
:101C800026FD04C0A114F2E0BF0671F4009100012A
:101C900010910101209102013091030106171707ED
:101CA0002807390709F05EC040E00E9449068823F2
:101CB00009F47ECFC401885F9A4FD3019C012A0D9D
:101CC0003B1DFC012E173F0709F46CC041914D9359
:101CD000F9CFDC011496BC90BA94B022811491041F
:101CE00079F4B1100DC0452B462B472B69F5F60151
:101CF0008789908DA18DB28D86839783A087B187C8
:101D0000D6015B96ED91FC915C9716966D917D9155
:101D10008D919C91199762507109810991092585CE
:101D200004C0660F771F881F991F2A95D2F7068572
:101D3000178520893189600F711F821F931F6B0DDA
:101D4000711D811D911D91CFD60116964D915D910A
:101D50006D917C9119972A813B810E945D088111C8
:101D6000CFCF26CF730185019401AB01BC018091D7
:101D70000807909109070E940105882309F418CFEC
:101D80006A0C7B1CF60182859385A485B5858A0D36
:101D90009B1DA11DB11D82879387A487B5874A1813
:101DA0005B083CCF281B390B620E731EEBCF2A94C5
:101DB000232809F0FDCE898190E0FCCEFC01818DC5
:101DC000928D009711F00C94BE0D8FEF9FEF089548
:101DD0000F931F93CF93DF93EC01898D9A8D10E0C1
:101DE00000E0009799F00E94BE0D8C010F3F100794
:101DF00069F0898D9A8DFC014285538564857585CE
:101E000041505109610971090E949D09C801DF9182
:101E1000CF911F910F91089585ED8093BC00809123
:101E2000BC0084FDFCCF1092560708952091D00489
:101E3000260F3327331F21323105ECF4209156074A
:101E4000FC0190E080E0243069F082E00895A091E8
:101E5000D0042191AC0140555B4FA40FB52FB11DAB
:101E60002C930196861798F38091D004680F6093A5
:101E7000D00480E0089581E008950895E0910F076F
:101E800080910E07E81730F4F0E0E05FF84F8081B2
:101E900090E008958FEF9FEF089590910F07809144
:101EA0000E072FEF3FEF981748F4E92FF0E0E05FBF
:101EB000F84F208130E09F5F90930F07C90108958C
:101EC000CF92DF92EF92FF920F931F93CF93DF9306
:101ED0007C01CB018A0120915707222389F0EB0175
:101EE0006B01C40ED51ECC15DD0569F06991D701D3
:101EF000ED91FC910190F081E02DC7010995F3CFA0
:101F0000642F0E94160FC801DF91CF911F910F918E
:101F1000FF90EF90DF90CF90089521E02093570736
:101F200027E7209379071092580710927A0742E02A
:101F300050E0BC0183E698E00E94600F0E94E5003B
:101F4000982F8093D40881E0911180E00895CF9379
:101F5000DF931F92CDB7DEB7698320915707222305
:101F6000F9F020917A07203258F021E030E0FC01AE
:101F70003383228390E080E00F90DF91CF9108952A
:101F800080915807E82FF0E0E75AF84F9981908345
:101F90008F5F8093580780937A0781E090E0ECCFC1
:101FA00061E0CE0101960E94160FF7CF90E080E02D
:101FB0000895613208F060E20E94420110920F071A
:101FC00080930E070895EF92FF920F931F93CF9384
:101FD000DF938C01F62E81E08093570787E780938B
:101FE00079071092580710927A07F801608183E60A
:101FF00098E00E94A70F0E94E5008093D408811109
:1020000026C0CF2D0F2C000CDD0BBE0187E790E022
:102010000E94D90F80910E0790910F07891B990B91
:10202000C817D907E9F7E02EC02FD12F83E698E033
:102030000E944D0F89938C2F8E198F15BCF381E070
:10204000DF91CF911F910F91FF90EF90089580E065
:10205000F7CF0F931F93CF93DF9300D0CDB7DEB7A9
:102060008B01898362E0CE0101960E94E30F8823F1
:1020700081F089819A81982789279827F80191838F
:10208000808381E00F900F90DF91CF911F910F918E
:102090000895F80111821082F5CF0F931F93CF930B
:1020A000DF9300D0CDB7DEB78B01898362E0CE012C
:1020B00001960E94E30F882381F089819A819827F5
:1020C00089279827F8019183808381E00F900F90F2
:1020D000DF91CF911F910F910895F8011182108225
:1020E000F5CF81E08093570788E6809379071092B7
:1020F000580710927A076FE083E698E00E94A70FD6
:102100000E94E50061E088E60E94420110920F07FC
:1021100080930E0783E698E00E944D0F0895CF92BA
:10212000DF92EF92FF921F93CF93DF93EC0180E257
:10213000689FF0011124E85FFA4F9385917161F077
:10214000842F827449F080E0DF91CF911F91FF903E
:10215000EF90DF90CF900895142F6A8B809100014B
:1021600090910101A0910201B09103018E879F8798
:10217000A88BB98BC488D588F12CE12C7601DD249D
:10218000CC24CF8AD88EE98EFA8E828D938DB0E0E2
:10219000A0E0AC01BD014C295D296E297F294F8B40
:1021A000588F698F7A8F83858871B1F4848D958D6E
:1021B000A68DB78D8B8B9C8BAD8BBE8B81E08D8379
:1021C0001F701C831E821F82188619861A861B8622
:1021D0001C861D8681E0B8CF803109F0B4CF9E0106
:1021E0002D5E3F4F8B8D9C8D0E94DE08882309F465
:1021F000AACF84E0E4CF0F931F93CF93DF93EC013A
:1022000088819981009759F02A813B8126173707E9
:1022100030F081E0DF91CF911F910F9108958B01F4
:102220006F5F7F4F0E943127009759F09983888311
:102230001B830A832C813D81232B59F7FC011082DB
:10224000E8CF80E0E7CFEF92FF920F931F93CF93F9
:10225000DF93EC017B018A01BA010E94FB10288107
:102260003981811114C02115310519F0C9010E946D
:10227000A826198218821D821C821B821A82CE0116
:10228000DF91CF911F910F91FF90EF9008951D83E3
:102290000C83B701C9010E940F28F1CFEF92FF9282
:1022A0000F931F93CF93DF93CDB7DEB728970FB669
:1022B000F894DEBF0FBECDBF8C011A8219821C823A
:1022C0001B821E821D8250E040E06BE373E0CE0172
:1022D00001960E9423118FE698E00E946B0D892BD6
:1022E00009F442C08FE698E00E94DE0E8A3001F5C4
:1022F000F801118210821382128215821482698180
:102300007A814D815E8161157105C9F589819A8156
:102310000E94A826C80128960FB6F894DEBF0FBE0B
:10232000CDBFDF91CF911F910F91FF90EF90089556
:102330008F831886ED80FE80FFEFEF1AFF0AB7014A
:10234000CE0101960E94FB10882329F229813A814F
:102350008D819E81BE01695F7F4F820F931F0E9416
:102360000F28FE82ED82B7CFF8011182108213820E
:1023700012821582148250E040E06BE373E0C801E2
:102380000E942311C3CFFB0101900020E9F7319790
:10239000AF01461B570BDC01ED91FC910280F381EC
:1023A000E02D09948F929F92AF92BF920F931F934B
:1023B000CF93DF93CDB7DEB7A1970FB6F894DEBF0A
:1023C0000FBECDBF19A2423008F44AE08E010F5D66
:1023D0001F4F842E912CB12CA12CA50194010E9499
:1023E000E425E62FB901CA01EA3004F5E05DD80121
:1023F000EE938D01232B242B252B79F790E080E0A1
:10240000109729F0BD018BE797E00E94C311A196B8
:102410000FB6F894DEBF0FBECDBFDF91CF911F91F5
:102420000F91BF90AF909F908F900895E95CDFCFA0
:10243000682F70E090E080E04AE00C94D211CF92D7
:10244000DF92EF92FF92CF93DF9397FF19C06B015A
:102450007C018DE20E94D902EC0166277727CB012F
:102460006C197D098E099F094AE00E94D2118C0FD8
:102470009D1FDF91CF91FF90EF90DF90CF90089557
:102480004AE0DF91CF91FF90EF90DF90CF900C94D6
:10249000D211BC018BE797E00C94C3114F925F926D
:1024A0006F927F928F929F92AF92BF92CF92DF9264
:1024B000EF92FF920F931F93CF936B017C01742EC9
:1024C000AC019B010E948A2460EA71E0811126C060
:1024D00046015701E894B7F82FEF3FEF4FE75FE76A
:1024E000C501B4010E948A2481110CC02FEF3FEF77
:1024F0004FE75FE7C501B4010E94B22164EA71E0D1
:10250000181664F02FEF3FEF4FE75FE4C701B60105
:102510000E9435241816ACF468EA71E08BE797E066
:10252000CF911F910F91FF90EF90DF90CF90BF90D0
:10253000AF909F908F907F906F905F904F900C9492
:10254000C3112FEF3FEF4FE75FECC701B6010E94C9
:10255000B22187FDE1CF20E030E0A901C701B6013B
:102560000E94B22110E000E087FF08C08DE20E94C7
:10257000D9028C01F7FAF094F7F8F094C0E060E02B
:1025800070E080E09FE37C1641F020E030E040E224
:1025900051E40E949423CF5FF6CFA70196010E94D9
:1025A00028232B013C010E9406244B015C014AE0D8
:1025B0000E94D2117C01E00EF11ECC23B1F1C501C5
:1025C000B4010E94B7219B01AC01C301B2010E947A
:1025D00027234B015C018EE20E94D902E80EF91E0E
:1025E000C15018F120E030E040E251E4C501B401EF
:1025F0000E9418222B013C010E9406244B01B12CA1
:10260000A12C4AE0C501B4010E94D211E80EF91EC6
:10261000C501B4010E94B7219B01AC01C301B20105
:102620000E9427234B015C01DBCFC701CF911F9193
:102630000F91FF90EF90DF90CF90BF90AF909F9061
:102640008F907F906F905F904F9008950C944E12F2
:102650006CEA71E00C94C311CF93DF93FC014481C9
:102660005581608171818BE797E00E94EC01EC015C
:102670008BE797E00E9428138C0F9D1FDF91CF916D
:1026800008950F931F93CF93DF93EC010E94C31122
:102690008C01CE010E942813800F911FDF91CF91F2
:1026A0001F910F9108958091880890918908009753
:1026B000B1F0FC012581222391F00E94660B8091EC
:1026C0008808909189080E94A82610928908109283
:1026D00088086FEA71E08BE797E00C944113089546
:1026E0003F924F925F926F927F928F929F92AF92A2
:1026F000BF92CF92DF92EF92FF920F931F93CF93EF
:10270000DF93CDB7DEB72B970FB6F894DEBF0FBEC1
:10271000CDBF7C01FE013196CE010C966F0130E2F7
:102720003193E817F907E1F7DA0130E087E09D918E
:10273000B92E992309F43CC09E32F1F48A30C9F4D1
:1027400080E02B960FB6F894DEBF0FBECDBFDF91B1
:10275000CF911F910F91FF90EF90DF90CF90BF909E
:10276000AF909F908F907F906F905F904F903F9031
:10277000089538E08AE0DBCFEAEEF0E044914423AC
:1027800021F031969413FACFDBCF8317C8F24FEDC7
:10279000490F4E35A8F64FE9490F4A3118F440EE7B
:1027A000B42EB90EF601E30FF11DB0823F5FBFCF2B
:1027B0008981803229F2322E8B01DB015B968D916B
:1027C0009C915C97F701948F838F16961D921D92B2
:1027D0001D921C921997FB0112861386148615868A
:1027E000F80182859385A485B585438954896589D7
:1027F000768984179507A607B70708F04DC025E02E
:10280000B695A795979587952A95D1F7F82FFF70DC
:10281000AF2ED80115968C91823008F491CFC80163
:102820000E94BE0D97FD8CCFF80182859385A4850B
:10283000B5854F96A11DB11D82879387A487B58763
:10284000F0E2AF9EB0011124685F7A4F6115710507
:1028500009F476CFDB018C91882341F0853E09F0A5
:1028600061C0BB2029F0BB24B394BACFB1100EC015
:10287000F701A28A8091000190910101A0910201CB
:10288000B091030186879787A08BB18BDB018C9178
:102890008111E9CFBB24B394832D8271823109F079
:1028A0004FCFBB2009F44CC0F7016685778580893E
:1028B000918941E00E944906882309F441CFD7015C
:1028C00052968C91B0E28B9FC0011124885F9A4F81
:1028D000009709F435CFFC013A9626E1DF011D92FD
:1028E0002A95E9F72BE0F601DC0101900D922A957B
:1028F000E1F721E238E2FC01318B208B40E058E027
:1029000057874687338B228B318F208F578B468B8F
:102910000E940C06882309F413CF432DD701529649
:102920006C910AC04BE050E0C6010E94EE27892B53
:1029300009F056CF432D6A2DC7010E948F1001CF99
:10294000F8018581823009F4FBCEC8010E94310A6A
:10295000882309F4F5CED8015B96ED91FC915C9744
:1029600016968D909D90AD90BC901997B2E08B1A01
:102970009108A108B108858504C0880C991CAA1C7F
:10298000BB1C8A95D2F786859785A089B189880E68
:10299000991EAA1EBB1E848124013501480E511CBC
:1029A000611C711C84149504A604B70401F1E1E0D4
:1029B0004E1A5108610871080E940C06882309F418
:1029C000BFCEE8E0F5E0119288E097E08E179F0710
:1029D000D1F7409200015092010160920201709281
:1029E00003018091F50481608093F504DBCFD80169
:1029F0005B96ED91FC91258580E092E0A0E0B0E04F
:102A000004C0880F991FAA1FBB1F2A95D2F7F8018F
:102A10004389548965897689840F951FA61FB71F3E
:102A2000838B948BA58BB68BD70152961C9288E032
:102A300095E051CFEF92FF920F931F93CF93DF93C7
:102A4000EC017B018A011B821A8288EE93E0A0E0F0
:102A5000B0E08C839D83AE83BF8382E991E099834C
:102A600088838DE190E00E940C269A8F898F0097D1
:102A700079F02DE1F701DC0101900D922A95E1F743
:102A80004CE050E0B801CE010C960E941628188E3A
:102A9000DF91CF911F910F91FF90EF9008952F92AA
:102AA0003F924F925F926F927F928F929F92AF92DE
:102AB000BF92CF92DF92EF92FF920F931F93CF932B
:102AC000DF93CDB7DEB7C756D1090FB6F894DEBF96
:102AD0000FBECDBF6C015B01A6964FAFA69719A2A2
:102AE00018A284E791E09F8F8E8F1BA21C821B820D
:102AF0009A8389831E824E018EE1880E911CC40147
:102B00000E94490975018E010F5F1F4F24011801B2
:102B10006FE270E0C7010E940428009709F45DC0CD
:102B2000F70120812F3271F4FFEFEF1AFF0A902F87
:102B3000812F8201492E582E942D852D2801092F91
:102B4000182FE6CF8E198D3008F08CE0682E712C8E
:102B5000A301B701CE01885A9F4F0E941628E8E5CD
:102B6000F0E0EC0FFD1FE60DF71D1082C8010E947A
:102B7000660BF8018581882301F11EAE1DAE84E746
:102B800091E09CAF8BAF21961FAE2197A896EEAD3A
:102B9000FFADA897AE0EBF1EF501808181112AC03E
:102BA000BE01655C7F4FC1010E94120D4BEB51E0ED
:102BB000B101C6010E941A153BC021E0AE01485A7E
:102BC0005F4FB201C8010E9470138823B1F2E60C76
:102BD000F71CC2010E94660BAFCFC7018A199B097F
:102BE000A8969FAF8EAFA897B201CE01CB960E9458
:102BF000120DCCCF19A218A284E791E09F8F8E8F7F
:102C00001BA221968FAD219781112DC0F601138251
:102C1000128288EE93E0A0E0B0E084839583A683DF
:102C2000B78382E991E091838083128E118E14869E
:102C3000C601C959DF4F0FB6F894DEBF0FBECDBF36
:102C4000DF91CF911F910F91FF90EF90DF90CF9088
:102C5000BF90AF909F908F907F906F905F904F90BC
:102C60003F902F900895A6962FADA697A501BE017F
:102C7000655C7F4FC4010E947013882339F2CE0136
:102C8000CB960E94660BA6968FADA697867086306F
:102C900039F449A95AA96BA97CA9C4010E949D09CC
:102CA000B401C1010E94120DA50182CF1F920F92A3
:102CB0000FB60F9211242F933F934F935F936F930F
:102CC0007F938F939F93AF93BF93EF93FF938BE784
:102CD00097E00E946A02FF91EF91BF91AF919F919F
:102CE0008F917F916F915F914F913F912F910F90B5
:102CF0000FBE0F901F9018951F920F920FB60F9254
:102D000011242F938F939F93EF93FF93E0918B0761
:102D1000F0918C078081E0919107F091920782FDFC
:102D20001BC09081809194078F5F8F7320919507CE
:102D3000821741F0E0919407F0E0E558F84F958F45
:102D400080939407FF91EF919F918F912F910F9016
:102D50000FBE0F901F9018958081F4CF1F920F9295
:102D60000FB60F9211242F933F938F939F93AF939E
:102D7000BF938091FB049091FC04A091FD04B0915D
:102D8000FE043091FA0423E0230F2D3758F5019605
:102D9000A11DB11D2093FA048093FB049093FC04C1
:102DA000A093FD04B093FE048091FF049091000570
:102DB000A0910105B09102050196A11DB11D80935E
:102DC000FF0490930005A0930105B0930205BF9105
:102DD000AF919F918F913F912F910F900FBE0F90C8
:102DE0001F90189526E8230F0296A11DB11DD2CF82
:102DF0001F920F920FB60F9211242F933F934F9370
:102E00005F936F937F938F939F93AF93BF93EF9352
:102E1000FF938091B900887F803609F44AC0F0F5AD
:102E2000883209F4A7C018F5803109F49BC0B8F4C2
:102E3000882309F4F9C0883009F494C0FF91EF9118
:102E4000BF91AF919F918F917F916F915F914F91C2
:102E50003F912F910F900FBE0F901F9018958831C2
:102E600009F488C0803251F78093540714C080342D
:102E700009F49DC040F48033B9F38833F9F68093A8
:102E8000540785ECB0C0803509F485C0883509F455
:102E900096C0883499F60E940C0FD0CF883909F477
:102EA0008CC038F5883729F050F4883611F0803717
:102EB00029F683E0809356071092F20457C08838B1
:102EC00009F47BC0803919F0803809F0B7CF8091C0
:102ED000F204803208F071C0E091F20481E08E0FBC
:102EE0008093F2048091BB00F0E0EE52FB4F8083B0
:102EF0003DC0803B39F0E0F4803A09F479C0883A6B
:102F000009F09CCF84E0809356071092D104109270
:102F1000D004E0910C07F0910D0709958091D00441
:102F200081110FC081E08093D0041092B00409C0D9
:102F3000803C09F4A6CF883C09F4A3CF883B09F074
:102F40007DCFE091D10481E08E0F8093D104F0E039
:102F5000E055FB4F80818093BB009091D10480911C
:102F6000D00429C0809131078093BB0085EC809309
:102F7000BC0064CF9091530780915207981758F581
:102F8000E091530781E08E0F80935307F0E0EE5CF1
:102F9000F84F8081E9CFE091530781E08E0F809355
:102FA00053078091BB00F0E0EE5CF84F8083909176
:102FB0005307809152079817C8F285E8D8CFE0915F
:102FC000530781E08E0F809353078091BB00F0E0A0
:102FD000EE5CF84F80838091550781115CCF81E0D2
:102FE0008093300784EA8093BC001092560726CF66
:102FF00085EC8093BC00109256078091F2048032D9
:1030000030F4E091F204F0E0EE52FB4F1082609158
:10301000F20470E0E0910A07F0910B0782ED94E072
:1030200009951092F2040ACF1092540734CFFC0194
:10303000908190539A3008F090E0818180532AE08B
:10304000929F800D11240895EBE7F7E0138212821E
:1030500088EE93E0A0E0B0E084839583A683B783F5
:1030600022E631E03183208325EC30E03587248768
:1030700024EC30E03787268720EC30E0318B208B42
:1030800021EC30E0338B228B22EC30E0358B248B2B
:1030900026EC30E0378B268B118E128E138E148E19
:1030A000E8E1F8E020E520831182EAE1F8E015820A
:1030B00016821186138642E050E060E070E044879B
:1030C00055876687778713A215A614A624E731E0F3
:1030D00033A722A717A6E3E6F8E0138212828483BF
:1030E0009583A683B78320E831E031832083EFE620
:1030F000F8E01382128284839583A683B78382E9E2
:1031000091E091838083128E118E14860895CF935F
:10311000DF93CDB7DEB76F970FB6F894DEBF0FBE63
:10312000CDBF789484B5826084BD84B5816084BD50
:1031300085B5826085BD85B5816085BD80916E0055
:10314000816080936E001092810080918100826086
:1031500080938100809181008160809381008091C3
:1031600080008160809380008091B10084608093B2
:10317000B1008091B00081608093B00080917A00AE
:10318000846080937A0080917A00826080937A00D4
:1031900080917A00816080937A0080917A008068C3
:1031A00080937A001092C1000E9484010E947E03E5
:1031B0006AE878E08AEA0E944D10882309F4C4C1C5
:1031C0006CE878E08CEA0E944D10882309F4BCC1B9
:1031D0006EE878E08EEA0E944D10882309F4B4C1AD
:1031E0006AE978E080EB0E942910882309F4ACC1D9
:1031F0006CE978E082EB0E942910882309F4A4C1CD
:103200006EE978E084EB0E942910882309F49CC1C0
:1032100060E978E086EB0E944D10882309F494C1A0
:1032200062E978E088EB0E944D10882309F48CC194
:1032300064E978E08AEB0E944D10882309F484C188
:1032400066E978E08CEB0E944D10882309F47CC17C
:1032500068E978E08EEB0E944D10882309F474C170
:1032600060918E0870918F08072E000C880B990BC7
:103270000E94B92120E030E040EA5BE30E9418227E
:103280002B013C0160919A0870919B0890E080E0CE
:103290000E94B7212FE632E143E053E30E94182257
:1032A0006B017C016091900870919108072E000CD1
:1032B000880B990B0E94B92120E030E048EC57E3DD
:1032C0000E9418224B015C0160919C0870919D083E
:1032D00090E080E00E94B7212DEC3CEC4CE454E3FC
:1032E0000E9418226093A0087093A1088093A208FE
:1032F0009093A30860919E0870919F0890E080E0F1
:103300000E94B7216093A4087093A5088093A60833
:103310009093A7086091960870919708072E000C6B
:10332000880B990B0E94B9212AE037ED43EA5DE34F
:103330000E9418226093A8087093A9088093AA0895
:103340009093AB086091980870919908072E000C33
:10335000880B990B0E94B92120E030E040E253E451
:103360000E9494236093AC087093AD088093AE08DC
:103370009093AF0860918A0870918B08072E000C1B
:10338000880B990B0E94B9216093B0087093B10823
:103390008093B2089093B30860918C0870918D0867
:1033A000072E000C880B990B0E94B92120E030E019
:1033B00040EA5CE30E9418226093B4087093B50859
:1033C0008093B6089093B708609192087091930823
:1033D000072E000C880B990B0E94B92120E030E0E9
:1033E00048E45AE30E9418226093B8087093B90821
:1033F0008093BA089093BB0820E030E040E057E4A7
:10340000C701B6010E9418226093BC087093BD08E2
:103410008093BE089093BF08A7019601C301B20133
:103420000E9418226093C0087093C1088093C2085C
:103430009093C308A5019401C701B6010E94182208
:103440006093C4087093C5088093C6089093C7081A
:103450008CEE91E5A7E1B0E48093C8089093C90889
:10346000A093CA08B093CB0880E394E3AEE7BFE330
:103470008093CC089093CD08A093CE08B093CF084A
:1034800080E097E5A4E9B6E38093D0089093D10853
:10349000A093D208B093D3086DEB71E08BE797E06F
:1034A0000E94411368EB7BE080E090E00E941704EB
:1034B0000E947E0381E08093570788E68093790716
:1034C0001092580710927A070E94E500811143C0BC
:1034D0000E94711090E0880F892F881F990B892B0B
:1034E00009F4E5C066EF71E08BE797E00E944113B5
:1034F0004BE050E06BE271E0CE0101960E94A92101
:10350000CE010A960E941718082FE981E154E33191
:1035100008F031C00E2E000CFF0BEF56F54E0C9448
:103520000626EC1BBB1ABB1A001CBB1A021CBB1ADA
:10353000BB1ABB1AB21ABB1ABB1AF31BFE1BFC1B2D
:10354000BB1ABB1ABB1AFA1B61ED71E08BE797E05F
:103550000E944113FFCF64EE71E08BE797E00E9479
:103560004113FFCF8A8111E0813629F08B8116E06B
:103570008E3609F017E0CE0105960E941718C82E66
:1035800048E050E062E271E0CE0101960E94A9217C
:10359000CE0101960E941718B82ECE0104960E9403
:1035A0001718A82ECE0107960E941718982EEE2401
:1035B000E394E0925707B8E6FB2EF0927907109259
:1035C000580710927A0760E083E698E00E94A70F00
:1035D0008AE0D82E892D6D2D0E94C425682F660F94
:1035E000680F660F690D83E698E00E94A70F8A2D89
:1035F0006D2D0E94C425682F660F680F660F6A0D37
:1036000083E698E00E94A70F8B2D6D2D0E94C425A4
:10361000682F660F680F660F6B0D83E698E00E94B7
:10362000A70F60E083E698E00E94A70F8C2D6D2D18
:103630000E94C425682F660F680F660F6C0D83E625
:1036400098E00E94A70F812F6D2D0E94C425682F3E
:10365000660F680F660F610F83E698E00E94A70F60
:10366000802F6D2D0E94C425682F660F680F660F8E
:10367000600F83E698E00E94A70F0E94E5000E9479
:103680007110182FE0925707F0927907109258079F
:1036900010927A076FE083E698E00E94A70F612FEF
:1036A0006F7783E698E00E94A70F0E94E5000E94D2
:1036B000840169E172E08BE797E00E94411361E0C9
:1036C0008AE00E94B00380914908882321F084E4B5
:1036D00098E00E94660B1092250810922308109221
:1036E000200810921F088AE080931E080E94490457
:1036F0008B0161E080911E080E94B00361E080911F
:103700001E080E945003FFB6F894809103058111B2
:1037100027C0EFE5F1E08491EBE4F1E09491E82F2C
:10372000F0E0EE0FFF1FE95CFE4FA591B491EC9124
:10373000E92321F461E08AE00E94500361E08AE01D
:103740000E94B0038CB580618CBD8CB580648CBD4B
:1037500061E08DE00E94B00361E08BE00E94B00365
:10376000809103058F5F80930305FFBE82E5809300
:1037700018081092190880911808909119080E9451
:103780008B04FAE0FF2E8FEF0E946604FA94F1108A
:10379000FACF8AE198E00E948E0420E030E0A9018F
:1037A00060E08AE198E00E94A404F82E8093240847
:1037B00041E0841749F10E944904601B710B613D8F
:1037C000774058F381E080931F088AE198E00E94D7
:1037D0005B046AE472E094C08B8114E0823709F4E0
:1037E000CACE18E0C8CE8B8113E0823709F4C3CE6D
:1037F00015E0C1CE19E0BFCE1AE0BDCE1BE0BBCEB6
:103800001CE0B9CE12E0B7CE2AEA31E040E050E049
:1038100068E08AE198E00E94A40482FF2AC0F09246
:10382000250880912508C12CD12CE12C70E4F72EBD
:10383000823019F0C12CD12C760120E030E0A901B2
:1038400067E38AE198E00E94A404A701960169E277
:103850008AE198E00E94A404809324088823D1F090
:103860000E944904601B710B613D774030F388E092
:10387000AACFE4E0FE2E0E946D0480932408FA94FF
:10388000F110F9CF8A3A11F082E09DCF82E0809367
:103890002508C7CF809125088230D1F420E030E0A0
:1038A000A9016AE38AE198E00E94A404882311F048
:1038B00086E089CF0E946D04807C803C19F483E00F
:1038C000809325080E946D040E946D040E946D047F
:1038D0008AE198E00E945B0480E5809318081092CA
:1038E000190881E00E949206882309F4E4C184E467
:1038F00098E00E944909882309F46BCF61E372E0E4
:103900008BE797E00E94411347E168E672E0CE0141
:1039100001960E944F15CE0101960E94B501E091DB
:103920008808F0918908309729F0858162E772E074
:10393000811102C06DE872E08BE797E00E944113AD
:10394000E0918808F0918908309709F4BBC185811E
:10395000882309F4B7C168EA72E08FE698E00E9414
:1039600041136DEB72E08BE797E00E94411368EA28
:1039700072E08BE797E00E9441130E94531341E0ED
:1039800066EE72E0CE0101960E944F15CE010196BF
:103990000E94B501E0918808F0918908309729F0DC
:1039A00085816FEE72E0811102C069E073E08BE700
:1039B00097E00E944113CE0101960E944E11CE0164
:1039C00001960E942C1389819A810E94A826CE011B
:1039D00001960E944E11CE0101960E942C138981FE
:1039E0009A810E94A8260E94531314EF6BE9262E99
:1039F000312C06EF81E00E94E1034C0182E00E943D
:103A0000E1032C0183E00E94E1037C018FE193E05C
:103A10000E944912092C000CAA08BB08C501B40178
:103A20000E941F128AE393E00E944912052C000CA9
:103A300066087708C301B2010E941F128AE393E06F
:103A40000E9449126701FF0CEE08FF08C701B6018A
:103A50000E941F1282EE91E00E944912C501B4013A
:103A60000E94B92120E030EC45EA53E40E9427236C
:103A700020E030E042E852E40E9494232DEC3CEC3C
:103A80004CE151E40E94182242E050E00E942613CB
:103A90008AE393E00E944912C301B2010E94B92156
:103AA00020E030EC44EA53E40E94272320E030E099
:103AB00049E852E40E9494232DEC3CEC4CE151E4A3
:103AC0000E94182242E050E00E9426138AE393E00D
:103AD0000E944912C701B6010E94B92120E030E0DE
:103AE0004AEA53E40E94272320E030E048E852E409
:103AF0000E9494232DEC3CEC4CE151E40E941822EE
:103B000042E050E00E94261381EE91E00E944912AB
:103B100064EF71E080E090E00E9417048BE797E08B
:103B20000E9428138CE393E00E94491250E040E089
:103B300060E070EE8EEC94E40E94261380E593E042
:103B40000E94491250E040E062E57EEA89EA95E48D
:103B50000E9426136AE573E08BE797E00E94411309
:103B600019839EE29A83CE0101960E948D0F60E632
:103B700073E0882309F401C265E070E080E090E022
:103B80000E941704098362E0CE0101960E94E30FB0
:103B90006FE574E0882309F4F0C1698170E090E07A
:103BA00080E00E94B92120E030E040E853E40E9428
:103BB00018226B017C016A8170E090E080E00E9435
:103BC000B9219B01AC01C701B6010E9428232091B5
:103BD000A4083091A5084091A6085091A7080E941A
:103BE00027232091A0083091A1084091A20850916C
:103BF000A3080E9418226B017C012091AC0830912F
:103C0000AD084091AE085091AF080E9428239B0157
:103C1000AC016091A8087091A9088091AA089091C0
:103C2000AB080E949423A70196010E9428236B01F0
:103C30007C0188E893E00E94491242E050E0C7010D
:103C4000B6010E94261386E993E00E94491226E6F7
:103C500036E646EE5FE3C701B6010E94182220E077
:103C600030E040E052E40E94282342E050E00E940D
:103C700026136FE973E08BE797E00E9441131983E5
:103C80001A83CE0101960E948D0F66EA73E08823A5
:103C900009F473C16AE170E080E090E00E941704CB
:103CA000098363E0CE0101960E94E30F81110DC0EC
:103CB00069E874E062C180E00E949206882309F4FA
:103CC00088CD15CE6FEC72E054CE20E030E048ECA9
:103CD00051E4C701B6010E9427236B017C01AC01AE
:103CE0009B010E9418224B015C01698170E090E009
:103CF00080E00E94B92120E030E040E853E40E94D7
:103D000018222B013C016A8170E090E080E00E9463
:103D1000B9219B01AC01C301B2010E9428232B01F0
:103D20003C016B8170E090E080E00E94B92120E0CE
:103D300030E040E85BE30E9418229B01AC01C30124
:103D4000B2010E9428236C8F7D8F8E8F9F8F2091D0
:103D5000B8083091B9084091BA085091BB08C50124
:103D6000B4010E9418222B013C012091B40830912B
:103D7000B5084091B6085091B708C701B6010E9436
:103D800018229B01AC01C301B2010E94282320919B
:103D9000B0083091B1084091B2085091B3080E9428
:103DA00028239B01AC016C8D7D8D8E8D9F8D0E9493
:103DB00027232B013C012091C4083091C508409174
:103DC000C6085091C708C501B4010E9418224B01D2
:103DD0005C012091C0083091C1084091C208509107
:103DE000C308C701B6010E9418229B01AC01C5019E
:103DF000B4010E9428232091BC083091BD08409155
:103E0000BE085091BF080E9428239B01AC01C3014A
:103E1000B2010E9494236B017C01AC019B010E94C2
:103E200018222091D0083091D1084091D2085091A9
:103E3000D3080E9418224B015C012091CC083091DC
:103E4000CD084091CE085091CF08C701B6010E941D
:103E500018229B01AC01C501B4010E9428232091C6
:103E6000C8083091C9084091CA085091CB080E94F7
:103E700028236B017C018BEC93E00E94491242E005
:103E800050E0C701B6010E9426138FED93E00E9417
:103E9000491229EF3FEE41EF5CE3C701B6010E94F2
:103EA000182242E050E00E94261365EE73E08BE793
:103EB00097E00E94411327E53BE941E55FE3C70135
:103EC000B6010E9494234B015C018BEE93E00E94AB
:103ED000491242E050E0C501B4010E9426138FED63
:103EE00093E00E94491229EF3FEE41EF5CE3C501E8
:103EF000B4010E94182242E050E00E94261365EEB1
:103F000073E08BE797E00E944113A5019401C7017C
:103F1000B6010E9494232EEA3CED42E45EE30E9447
:103F20003A249B01AC0160E070E080E89FE30E94CE
:103F3000272320E03AE24DE257E40E9418226B0169
:103F40007C018BE094E00E94491250E040E0C70100
:103F5000B6010E94261380E593E00E94491228E4EE
:103F600039EF41E550E4C701B6010E94182250E044
:103F700040E00E9426136AE573E08BE797E00E9419
:103F8000411368E873E180E090E00E9417048BE73A
:103F900097E00E94281319821A821B821C821D82BC
:103FA00061E082E00E94B00360E082E00E94500382
:103FB00062E170E080E090E00E94170461E082E03E
:103FC0000E945003C1010197F1F760E082E00E9476
:103FD000B00351E1E52E57E2F52E82E00E9427035F
:103FE000892B09F0F4C041E0E41AF108B1F78FE140
:103FF00094E00E9449126091040570910505072E16
:10400000000C880B990B0E94B92142E00E944E12CD
:104010008BE797E00E94281380E394E00E94491206
:104020006091060570910705072E000C880B990B0F
:104030000E94B92142E00E944E128BE797E00E9455
:10404000281360ED77E080E090E00E94170481E0A3
:104050008093570758E650937907109258071092AB
:104060007A0760E083E698E00E94A70F0E94E500CF
:1040700067E070E088E690E00E94D90F83E698E060
:104080000E944D0F8F77282F30E054E0359527950B
:104090005A95E1F7922F990F990F822E891A880C61
:1040A000880E83E698E00E944D0F9C0164E03595F0
:1040B00027956A95E1F72F703327922F990F990F63
:1040C000722E791A770C780E83E698E00E944D0FD5
:1040D0009C0174E0359527957A95E1F72F70332789
:1040E000922F990F990F622E691A660C680E83E65B
:1040F00098E00E944D0F83E698E00E944D0F9C01CE
:10410000E4E035952795EA95E1F72F703327922F54
:10411000990F990FB22EB91ABB0CB80E83E698E02E
:104120000E944D0F9C01F4E035952795FA95E1F733
:104130002F703327922F990F990F922E991A990C5D
:10414000980E83E698E00E944D0F9C01A4E03595FF
:104150002795AA95E1F72F703327922F990F990F82
:10416000A22EA91AAA0CA80ECA2CD12C760180E383
:10417000E81A88EFF80A62E474E08BE797E00E949F
:104180004113B7010F2C000C880B990B4AE00E94D9
:10419000D2118FE20E94D902892D0E9418128FE25B
:1041A0000E94D9028B2D0E94181289E594E00E948A
:1041B00049122B2D30E0E9E6F1E081E0891508F0A5
:1041C0006EC09491290F311D8F5F3196F7CF41E179
:1041D000E42E47E2F42E82E00E942703019729F49F
:1041E00051E0E51AF108B9F702CFE12C28E2C22E1E
:1041F000D12C37E0F32E91E1A92E97E2B92E82E07F
:104200000E942703892B29F481E0A81AB108B9F785
:10421000EECE0E94F2032B013C0181E1A82E87E241
:10422000B82E82E00E942703019729F491E0A91A91
:10423000B108B9F7DCCE0E94F2036419750986094A
:104240009709693271058105910580F0E1E0F0E0A0
:10425000EC0FFD1FEE0DF11D808121E030E00F2CF1
:1042600001C0220F0A94EAF7822B8083F11015C057
:10427000E394B7E0FB2E41E0C41AD10809F0BBCFAC
:10428000898190E090930505809304058B8190E0EF
:104290009093070580930605AACEFA94ECCF92E09E
:1042A000991528F48A2D837011F42F5F3F4FC701B1
:1042B0008D5C974096958795969587954DE651E04C
:1042C000C49E7001C59EF00CD49EF00C11248E0D7E
:1042D0009F1D0596820F931F67E070E00E94D02516
:1042E0005CE0589F9001599F300D1124C9018C5FEB
:1042F0009E4F0E9449128CE594E00E944912862D3F
:104300000E9418128AE30E94D902872D0E94181277
:104310008AE30E94D902882D0E9418128BE797E049
:104320000E9428138BE797E00E94281368EE73E041
:1043300080E090E00E94170480E090E0892B09F46F
:1043400059CB0E945602882309F454CB0E940000E6
:1043500051CBFB01DC0102C005900D924150504051
:10436000D8F708950E94F42108F481E00895E894B4
:1043700009C097FB3EF490958095709561957F4FAD
:104380008F4F9F4F9923A9F0F92F96E9BB2793955B
:10439000F695879577956795B795F111F8CFFAF46B
:1043A000BB0F11F460FF1BC06F5F7F4F8F4F9F4F9C
:1043B00016C0882311F096E911C0772321F09EE8FA
:1043C000872F762F05C0662371F096E8862F70E060
:1043D00060E02AF09A95660F771F881FDAF7880F3A
:1043E0009695879597F90895990F0008550FAA0B90
:1043F000E0E8FEEF16161706E807F907C0F01216F8
:104400001306E407F50798F0621B730B840B950BFA
:1044100039F40A2661F0232B242B252B21F408954F
:104420000A2609F4A140A6958FEF811D811D0895EC
:104430000E942B220C949C220E948E2238F00E9413
:10444000952220F0952311F00C9485220C948B2258
:1044500011240C94D0220E94AD2270F3959FC1F3D9
:10446000950F50E0551F629FF001729FBB27F00D22
:10447000B11D639FAA27F00DB11DAA1F649F662777
:10448000B00DA11D661F829F2227B00DA11D621FC6
:10449000739FB00DA11D621F839FA00D611D221F80
:1044A000749F3327A00D611D231F849F600D211D64
:1044B000822F762F6A2F11249F5750409AF0F1F0E7
:1044C00088234AF0EE0FFF1FBB1F661F771F881F50
:1044D00091505040A9F79E3F510580F00C948522E1
:1044E0000C94D0225F3FE4F3983ED4F38695779501
:1044F0006795B795F795E7959F5FC1F7FE2B880FF6
:10450000911D9695879597F9089597F99F6780E88B
:1045100070E060E008959FEF80EC089500240A9415
:104520001616170618060906089500240A9412168E
:104530001306140605060895092E0394000C11F4C1
:10454000882352F0BB0F40F4BF2B11F460FF04C06E
:104550006F5F7F4F8F4F9F4F089557FD9058440FC7
:10456000551F59F05F3F71F04795880F97FB991FD2
:1045700061F09F3F79F0879508951216130614068F
:10458000551FF2CF4695F1DF08C01616170618061C
:10459000991FF1CF86957105610508940895E894F7
:1045A000BB2766277727CB0197F908950E94182328
:1045B000A59F900DB49F900DA49F800D911D112477
:1045C00008952F923F924F925F926F927F928F92B7
:1045D0009F92AF92BF92CF92DF92EF92FF920F9392
:1045E0001F93CF93DF93CDB7DEB7CA1BDB0B0FB69C
:1045F000F894DEBF0FBECDBF09942A883988488859
:104600005F846E847D848C849B84AA84B984C884EE
:10461000DF80EE80FD800C811B81AA81B981CE0FE5
:10462000D11D0FB6F894DEBF0FBECDBFED010895CA
:10463000A29FB001B39FC001A39F700D811D1124E3
:10464000911DB29F700D811D1124911D0895505828
:10465000BB27AA270E943F230C949C220E948E22F3
:1046600038F00E94952220F039F49F3F19F426F487
:104670000C948B220EF4E095E7FB0C948522E92F35
:104680000E94AD2258F3BA17620773078407950793
:1046900020F079F4A6F50C94CF220EF4E0950B2EC1
:1046A000BA2FA02D0B01B90190010C01CA01A00184
:1046B0001124FF27591B99F0593F50F4503E68F1DF
:1046C0001A16F040A22F232F342F4427585FF3CF20
:1046D000469537952795A795F0405395C9F77EF4F1
:1046E0001F16BA0B620B730B840BBAF09150A1F03A
:1046F000FF0FBB1F661F771F881FC2F70EC0BA0FC0
:10470000621F731F841F48F4879577956795B79547
:10471000F7959E3F08F0B0CF9395880F08F0992742
:10472000EE0F9795879508950E94A8230C949C22DC
:104730000E94952258F00E948E2240F029F45F3F9B
:1047400029F00C94852251110C94D0220C948B22C8
:104750000E94AD2268F39923B1F3552391F3951B81
:10476000550BBB27AA2762177307840738F09F5F92
:104770005F4F220F331F441FAA1FA9F335D00E2EFF
:104780003AF0E0E832D091505040E695001CCAF76C
:104790002BD0FE2F29D0660F771F881FBB1F26172F
:1047A00037074807AB07B0E809F0BB0B802DBF0106
:1047B000FF2793585F4F3AF09E3F510578F00C94D5
:1047C00085220C94D0225F3FE4F3983ED4F3869583
:1047D00077956795B795F7959F5FC9F7880F911DF6
:1047E0009695879597F90895E1E0660F771F881FE2
:1047F000BB1F621773078407BA0720F0621B730B95
:10480000840BBA0BEE1F88F7E09508950E94B5223D
:1048100088F09F5798F0B92F9927B751B0F0E1F081
:10482000660F771F881F991F1AF0BA95C9F714C031
:10483000B13091F00E94CF22B1E008950C94CF22C4
:10484000672F782F8827B85F39F0B93FCCF386956A
:1048500077956795B395D9F73EF4909580957095C7
:1048600061957F4F8F4F9F4F08950E94F42108F468
:104870008FEF0895FA01EE0FFF1F309621053105E5
:10488000A1F16115710561F48038BFE39B0749F11F
:1048900068949038810561F08038BFEF9B0741F044
:1048A00099234AF5FF3FE1053105210519F1E89407
:1048B0000894E795D901AA2329F4AB2FBE2FF85FFE
:1048C000D0F310C0FF5F70F4A695E0F7F73950F011
:1048D00019F0FF3A38F49F779F930DD00F9007FCA3
:1048E0009058089546F00C948B2260E070E080E8C8
:1048F0009FE308954FE79F775F934F933F932F93E5
:104900000E943A252F913F914F915F910E9418226A
:104910000C9497240E94F421880B990B089529F494
:1049200016F00C9485220C94CF220C948B220E94BA
:10493000B522A8F39638A0F707F80F92E8942BE376
:104940003AEA48EB5FE70E942E220F920F920F92F5
:104950004DB75EB70F920E948225E8E6F0E00E9414
:10496000C9244F915F91EF91FF91E595EE1FFF1FD5
:1049700049F0FE57E0684427EE0F441FFA95E1F72F
:104980004195550B0E94FC240F9007FE0C94F024D7
:104990000895DF93CF931F930F93FF92EF92DF92CF
:1049A0007B018C01689406C0DA2EEF010E942B2255
:1049B000FE01E894A5912591359145915591A6F375
:1049C000EF010E943F23FE019701A801DA9469F7E5
:1049D000DF90EF90FF900F911F91CF91DF9108959D
:1049E0009B01AC0160E070E080E89FE30C949423AD
:1049F0000C9485220C94B6250E94B522D8F39923F5
:104A0000C9F3940F511DA3F39150504094F059F005
:104A1000882332F0660F771F881F91505040C1F7EE
:104A20009E3F51052CF7880F911D9695879597F914
:104A300008955F3FACF0983E9CF0BB278695779534
:104A40006795B79508F4B1609395C1F7BB0F58F718
:104A500011F460FFE8CF6F5F7F4F8F4F9F4FE3CF21
:104A60000C94D02216F00C94B6250C948B226894EA
:104A70000C9485220E94B522A8F39923C1F3AEF3CA
:104A8000DF93CF931F930F93FF92C92FDD278823C6
:104A90002AF02197660F771F881FDAF720E030E0B1
:104AA00040E85FEB9FE3883920F0803E38F02196A4
:104AB0008F770E942823E0E9F0E004C00E942823B9
:104AC000EDEBF0E00E94C9248B01BE01EC01FB2E4E
:104AD0006F5771097595771F880B990B0E94B92143
:104AE00028E132E741E35FE30E942B22AF2D9801DA
:104AF000AE01FF900F911F91CF91DF910E943F2354
:104B00000C949C22FA01DC01AA0FBB1F9B01AC0193
:104B1000BF5728F4222733274427507820C0B751A5
:104B200090F4AB2F0024469537952795011CA3954B
:104B3000D2F3002071F0220F331F441FB395DAF334
:104B40000ED00C94272361307105A0E88A07B9467E
:104B500030F49B01AC016627772788279078309640
:104B600021F0208331834283538308959F3F31F0A6
:104B7000915020F4879577956795B795880F911D8B
:104B80009695879597F90895991B79E004C0991F28
:104B9000961708F0961B881F7A95C9F78095089597
:104BA000AA1BBB1B51E107C0AA1FBB1FA617B70753
:104BB00010F0A61BB70B881F991F5A95A9F780956F
:104BC0009095BC01CD010895A1E21A2EAA1BBB1B32
:104BD000FD010DC0AA1FBB1FEE1FFF1FA217B307C9
:104BE000E407F50720F0A21BB30BE40BF50B661FDF
:104BF000771F881F991F1A9469F7609570958095A3
:104C000090959B01AC01BD01CF010895EE0FFF1FF0
:104C10000590F491E02D09940F931F93CF93DF93A8
:104C20008230910510F482E090E0E091D708F09195
:104C3000D80830E020E0B0E0A0E0309799F42115EA
:104C4000310509F44AC0281B390B24303105D8F549
:104C50008A819B816115710589F1FB0193838283B0
:104C6000FE0111C04081518102811381481759070B
:104C7000E0F04817590799F4109761F012960C93D9
:104C8000129713961C933296CF01DF91CF911F910B
:104C90000F9108950093D7081093D808F4CF2115E9
:104CA000310551F04217530738F0A901DB019A0191
:104CB000BD01DF01F801C1CFEF01F9CF9093D80812
:104CC0008093D708CDCFFE01E20FF31F819391931C
:104CD0002250310939832883D7CF2091D5083091CC
:104CE000D608232B41F420915A0130915B01309377
:104CF000D6082093D50820915801309159012115EB
:104D0000310541F42DB73EB740915C0150915D01F2
:104D1000241B350BE091D508F091D608E217F30774
:104D2000A0F42E1B3F0B2817390778F0AC014E5F1B
:104D30005F4F2417350748F04E0F5F1F5093D6087A
:104D40004093D508819391939FCFF0E0E0E09CCF12
:104D5000CF93DF930097E9F0FC0132971382128220
:104D6000A091D708B091D808ED0130E020E010976D
:104D7000A1F420813181820F931F2091D5083091B9
:104D8000D6082817390709F061C0F093D608E093D8
:104D9000D508DF91CF910895EA01CE17DF07E8F536
:104DA0004A815B819E0141155105B1F7E901FB8301
:104DB000EA8349915991C40FD51FEC17FD0761F49F
:104DC000808191810296840F951FE90199838883E0
:104DD000828193819B838A83F0E0E0E012968D913B
:104DE0009C9113970097B9F52D913C911197CD01A6
:104DF0000296820F931F2091D5083091D60828176C
:104E0000390739F6309751F51092D8081092D70823
:104E1000B093D608A093D508BCCFD383C28340817A
:104E20005181840F951FC817D90761F44E5F5F4FFA
:104E300088819981480F591F518340838A819B81C2
:104E4000938382832115310509F0B0CFF093D80800
:104E5000E093D7089ECFFD01DC01C0CF1382128200
:104E6000D7CFB0E0A0E0E7E3F7E20C94E3228C01B7
:104E7000009751F4CB010E940C268C01C801CDB7DC
:104E8000DEB7E0E10C94FF22FC01E60FF71F9C0166
:104E900022503109E217F30708F49DC0D901CD91E2
:104EA000DC911197C617D70798F0C530D10530F3BC
:104EB000CE0104978617970708F3C61BD70B2297D6
:104EC000C193D1936D937C93CF010E94A826D6CF36
:104ED0005B01AC1ABD0A4C018C0E9D1EA091D70837
:104EE000B091D808512C412CF12CE12C109731F5C0
:104EF0008091D5089091D6088815990509F05CC075
:104F00004616570608F058C08091580190915901F3
:104F1000009741F48DB79EB740915C0150915D01BF
:104F2000841B950BE817F90708F055C0F093D608D5
:104F3000E093D508F90171836083A0CF8D919C9196
:104F4000119712966C90129713967C901397A81550
:104F5000B90559F56C0142E0C40ED11CCA14DB043A
:104F600020F1AC014A195B09DA011296159780F01D
:104F70006282738251834083D9016D937C93E114E3
:104F8000F10471F0D7011396FC93EE93129776CF4C
:104F900022968C0F9D1FF90191838083F301EFCF3F
:104FA000F093D808E093D70869CF4816590608F45B
:104FB0002C017D01D3019ACFCB010E940C267C01EC
:104FC000009749F0AE01B8010E94FB27C8010E947A
:104FD000A826870153CF10E000E050CFFB01DC0191
:104FE00004C08D910190801921F441505040C8F7C0
:104FF000881B990B0895FB01DC0102C001900D9202
:1050000041505040D8F70895FC018191861721F056
:105010008823D9F7992708953197CF010895FB0187
:10502000DC0101900D920020E1F70895FB01DC0105
:105030004150504048F001900D920020C9F701C046
:0E5040001D9241505040E0F70895F894FFCFC4
:10504E00FFFFFFFF53756E646179000000000000E2
:10505E004D6F6E6461790000000000005475657339
:10506E0064617900000000005765646E65736461C9
:10507E007900000054687572736461790000000055
:10508E004672696461790000000000005361747516
:10509E0072646179000000000000D90880000000F1
:1050AE0000008C02EC011902DE024A0228023C02C8
:1050BE0000000000010DEC01D60F620D0000000093
:1050CE00A70F600FD60F3D0FAC014D0F3E0F000026
:1050DE000000A80D8B0DD60F630D6B0DDE0EE80EC6
:1050EE006E616E00696E66006F7666000D0A004690
:1050FE00696C6520636C6F736564002F00424D50C0
:10510E0031383020696E697420737563636573730B
:10511E0000424D5031383020696E697420666169E5
:10512E006C0A0A00436F756C646E27742066696E94
:10513E00642052544300525443206C6F7374207099
:10514E006F7765722C206C65747320736574207490
:10515E0068652074696D652100496E697469616CBA
:10516E00697A696E6720534420636172642E2E2E15
:10517E000053442063617264206973207265616418
:10518E007920746F207573652E005344206361720D
:10519E006420696E697469616C697A6174696F6E95
:1051AE00206661696C65640074657374312E747861
:1051BE00740046696C652063726561746564207362
:1051CE0075636365737366756C6C792E00457272C8
:1051DE006F72207768696C65206372656174696EA1
:1051EE00672066696C652E005468697320697320A8
:1051FE0073616D706C6520746578742100577269E7
:10520E0074696E6720746F2066696C653A2000437E
:10521E006F756C646E277420777269746520746F75
:10522E002066696C6500746573742E74787400461C
:10523E00696C65206F70656E65642077697468208F
:10524E007375636365737321004572726F72206F9D
:10525E0070656E696E672066696C652E2E2E000A6B
:10526E000A20416363656C65726F6D6574657220AB
:10527E0076616C7565733A200A00090070726F765C
:10528E006964656420616C7469747564653A2000A4
:10529E00206D65746572732C200020666565740040
:1052AE006572726F72207374617274696E672074A6
:1052BE00656D7065726174757265206D656173756B
:1052CE0072656D656E740A0074656D7065726174D9
:1052DE007572653A20002064656720432C200020FB
:1052EE006465672046006572726F72207374617216
:1052FE0074696E67207072657373757265206D6563
:10530E0061737572656D656E740A006162736F6CA0
:10531E007574652070726573737572653A2000201E
:10532E006D622C200020696E48670072656C617496
:10533E0069766520287365612D6C6576656C29200C
:10534E0070726573737572653A2000636F6D707558
:10535E0074656420616C7469747564653A20000A22
:10536E0048756D6964697479202825293A092000E9
:10537E0054656D7065726174757265202843293AA3
:10538E0020000A43757272656E7420446174652044
:10539E00262054696D653A200020280029200065DA
:1053AE0072726F722072657472696576696E6720AB
:1053BE0074656D7065726174757265206D6561736B
:1053CE007572656D656E740A006572726F72207209
:1053DE00657472696576696E672070726573737530
:1053EE007265206D6561737572656D656E740A0008
:107800000C94343C0C94513C0C94513C0C94513CE1
:107810000C94513C0C94513C0C94513C0C94513CB4
:107820000C94513C0C94513C0C94513C0C94513CA4
:107830000C94513C0C94513C0C94513C0C94513C94
:107840000C94513C0C94513C0C94513C0C94513C84
:107850000C94513C0C94513C0C94513C0C94513C74
:107860000C94513C0C94513C11241FBECFEFD8E036
:10787000DEBFCDBF11E0A0E0B1E0ECE9FFE702C060
:1078800005900D92A230B107D9F712E0A2E0B1E065
:1078900001C01D92AD30B107E1F70E942D3D0C945F
:1078A000CC3F0C94003C982F959595959595959582
:1078B000905D8F708A307CF0282F295A8091C0000B
:1078C00085FFFCCF9093C6008091C00085FFFCCF60
:1078D0002093C6000895282F205DF0CF982F809127
:1078E000C00085FFFCCF9093C6000895EF92FF92F1
:1078F0000F931F93EE24FF2487018091C00087FD22
:1079000017C00894E11CF11C011D111D81E4E8164B
:1079100082E4F8068FE0080780E0180770F3E09132
:107920000401F091050109958091C00087FFE9CF1E
:107930008091C6001F910F91FF90EF9008950E94D3
:10794000763C982F8091C00085FFFCCF9093C600B5
:1079500091362CF490330CF09053892F089597555D
:10796000892F08951F930E949F3C182F0E949F3CCF
:107970001295107F810F1F9108951F93182F882350
:1079800021F00E94763C1150E1F71F9108951F935A
:10799000182F0E94763C803249F0809103018F5F5E
:1079A000809303018530C1F01F9108958091C0003C
:1079B00085FFFCCF84E18093C6008091C00085FFE5
:1079C000FCCF1093C6008091C00085FFFCCF80E102
:1079D0008093C6001F910895E0910401F091050184
:1079E00009951F9108950E94763C803241F0809164
:1079F00003018F5F80930301853081F008958091AA
:107A0000C00085FFFCCF84E18093C6008091C00058
:107A100085FFFCCF80E18093C6000895E0910401CA
:107A2000F09105010995089540E951E08823A1F0FE
:107A30002D9A28EE33E0FA013197F1F721503040CA
:107A4000D1F72D9828EE33E0FA013197F1F7215064
:107A50003040D1F7815061F708953F924F925F9285
:107A60006F927F928F929F92AF92BF92CF92DF924E
:107A7000EF92FF920F931F93CF93DF93000080E16B
:107A80008093C4001092C50088E18093C10086E015
:107A90008093C2005098589A259A81E00E94143D24
:107AA00024E1F22E9EE1E92E85E9D82E0FE0C02ECA
:107AB00010E1B12EAA24A394B1E49B2EA6E58A2E50
:107AC000F2E57F2EE0E26E2E79E4572E63E5462E36
:107AD00050E5352E0E94763C8033B1F18133B9F107
:107AE000803409F46FC0813409F476C0823409F41B
:107AF00085C0853409F488C0803531F1823521F1A3
:107B0000813511F1853509F485C0863509F48DC0BC
:107B1000843609F496C0843709F403C1853709F423
:107B200072C1863709F466C0809103018F5F80932C
:107B30000301853079F6E0910401F0910501099582
:107B40000E94763C803351F60E94F33CC3CF0E94E2
:107B5000763C803249F78091C00085FFFCCFF092DF
:107B6000C6008091C00085FFFCCF9092C600809136
:107B7000C00085FFFCCF8092C6008091C00085FFC9
:107B8000FCCF7092C6008091C00085FFFCCF609250
:107B9000C6008091C00085FFFCCF5092C600809146
:107BA000C00085FFFCCF4092C6008091C00085FFD9
:107BB000FCCF3092C6008091C00085FFFCCFB09210
:107BC000C60088CF0E94763C863808F4BDCF0E945C
:107BD000763C0E94F33C7ECF0E94763C803809F4CC
:107BE0009CC0813809F40BC1823809F43CC1883942
:107BF00009F48FC080E00E94C73C6CCF84E10E94F2
:107C0000BD3C0E94F33C66CF85E00E94BD3C0E94D3
:107C1000F33C60CF0E94763C809306010E94763C44
:107C2000809307010E94F33C55CF0E94763C80333D
:107C300009F41DC183E00E94BD3C80E00E94C73C66
:107C400049CF0E94763C809309020E94763C809343
:107C5000080280910C028E7F80930C020E94763C79
:107C6000853409F415C18091080290910902892B8D
:107C700089F000E010E00E94763CF801E85FFE4FDA
:107C800080830F5F1F4F80910802909109020817AF
:107C9000190788F30E94763C803209F045CF809125
:107CA0000C0280FF01C16091060170910701660F0F
:107CB000771F7093070160930601A0910802B091AD
:107CC00009021097C9F0E8E0F1E09B01AD014E0F09
:107CD0005F1FF999FECF32BD21BD819180BDFA9A17
:107CE000F99A2F5F3F4FE417F50799F76A0F7B1F4B
:107CF00070930701609306018091C00085FFFCCF5F
:107D0000F092C6008091C00085FFFCCFB092C60003
:107D1000E1CE83E00E94C73CDDCE82E00E94C73CFA
:107D2000D9CE0E94763C809309020E94763C8093D3
:107D300008028091060190910701880F991F909386
:107D40000701809306010E94763C853409F4A6C0A1
:107D500080910C028E7F80930C020E94763C8032D0
:107D600009F0B8CE8091C00085FFFCCFF092C6002C
:107D7000609108027091090261157105B9F140E046
:107D800050E080910C02A82FA170B82FB27011C0E2
:107D9000BB2309F45CC0E0910601F0910701319624
:107DA000F0930701E09306014F5F5F4F46175707B7
:107DB000E8F4AA2369F3F999FECF209106013091E6
:107DC000070132BD21BDF89A90B58091C00085FFB2
:107DD000FCCF9093C6002F5F3F4F30930701209355
:107DE00006014F5F5F4F4617570718F38091C00099
:107DF00085FDE5CE8091C00085FFF8CFE0CE81E023
:107E00000E94C73C67CE0E94763C803209F08CCE3F
:107E10008091C00085FFFCCFF092C6008091C00029
:107E200085FFFCCFE092C6008091C00085FFFCCFAB
:107E3000D092C6008091C00085FFFCCFC092C600E2
:107E40008091C00085FFFCCFB092C60043CEE09188
:107E50000601F091070194918091C00085FFFCCF4D
:107E60009093C6009CCF80E10E94C73C33CE0E9415
:107E7000763C0E94763C182F0E94763C112309F430
:107E800083C0113009F484C08FE00E94C73C22CE29
:107E900080910C02816080930C02E5CE80910C02EF
:107EA000816080930C0259CF809107018823880F4D
:107EB000880B8A2180930B02809106019091070123
:107EC000880F991F90930701809306018091080203
:107ED00080FF09C080910802909109020196909359
